{
  "contractName": "Authentication",
  "abi": [
    {
      "inputs": [],
      "stateMutability": "nonpayable",
      "type": "constructor"
    },
    {
      "anonymous": false,
      "inputs": [
        {
          "indexed": true,
          "internalType": "address",
          "name": "userAddress",
          "type": "address"
        }
      ],
      "name": "UserLoggedIn",
      "type": "event"
    },
    {
      "anonymous": false,
      "inputs": [
        {
          "indexed": true,
          "internalType": "address",
          "name": "userAddress",
          "type": "address"
        },
        {
          "indexed": false,
          "internalType": "string",
          "name": "username",
          "type": "string"
        }
      ],
      "name": "UserRegistered",
      "type": "event"
    },
    {
      "inputs": [],
      "name": "owner",
      "outputs": [
        {
          "internalType": "address",
          "name": "",
          "type": "address"
        }
      ],
      "stateMutability": "view",
      "type": "function"
    },
    {
      "inputs": [
        {
          "internalType": "string",
          "name": "",
          "type": "string"
        }
      ],
      "name": "usernameToAddress",
      "outputs": [
        {
          "internalType": "address",
          "name": "",
          "type": "address"
        }
      ],
      "stateMutability": "view",
      "type": "function"
    },
    {
      "inputs": [
        {
          "internalType": "address",
          "name": "",
          "type": "address"
        }
      ],
      "name": "users",
      "outputs": [
        {
          "internalType": "string",
          "name": "username",
          "type": "string"
        },
        {
          "internalType": "string",
          "name": "passwordHash",
          "type": "string"
        }
      ],
      "stateMutability": "view",
      "type": "function"
    },
    {
      "inputs": [
        {
          "internalType": "string",
          "name": "_username",
          "type": "string"
        },
        {
          "internalType": "string",
          "name": "_passwordHash",
          "type": "string"
        }
      ],
      "name": "registerUser",
      "outputs": [],
      "stateMutability": "nonpayable",
      "type": "function"
    },
    {
      "inputs": [
        {
          "internalType": "string",
          "name": "_username",
          "type": "string"
        },
        {
          "internalType": "string",
          "name": "_passwordHash",
          "type": "string"
        }
      ],
      "name": "loginUser",
      "outputs": [],
      "stateMutability": "nonpayable",
      "type": "function"
    },
    {
      "inputs": [
        {
          "internalType": "string",
          "name": "_username",
          "type": "string"
        },
        {
          "internalType": "string",
          "name": "_newPasswordHash",
          "type": "string"
        }
      ],
      "name": "forgotPassword",
      "outputs": [],
      "stateMutability": "nonpayable",
      "type": "function"
    }
  ],
  "bytecode": "0x608060405234801561000f575f80fd5b50335f806101000a81548173ffffffffffffffffffffffffffffffffffffffff021916908373ffffffffffffffffffffffffffffffffffffffff16021790555061117f8061005c5f395ff3fe608060405234801561000f575f80fd5b5060043610610060575f3560e01c80631d2e4afd1461006457806322ce12e5146100805780638da5cb5b1461009c5780639cb1d347146100ba578063a87430ba146100d6578063f825f14314610107575b5f80fd5b61007e600480360381019061007991906109b8565b610137565b005b61009a600480360381019061009591906109b8565b6102f4565b005b6100a4610545565b6040516100b19190610a6d565b60405180910390f35b6100d460048036038101906100cf91906109b8565b610568565b005b6100f060048036038101906100eb9190610ab0565b6106f7565b6040516100fe929190610b55565b60405180910390f35b610121600480360381019061011c9190610b8a565b610823565b60405161012e9190610a6d565b60405180910390f35b5f73ffffffffffffffffffffffffffffffffffffffff1660028360405161015e9190610c0b565b90815260200160405180910390205f9054906101000a900473ffffffffffffffffffffffffffffffffffffffff1673ffffffffffffffffffffffffffffffffffffffff16146101e2576040517f08c379a00000000000000000000000000000000000000000000000000000000081526004016101d990610c6b565b60405180910390fd5b5f60015f3373ffffffffffffffffffffffffffffffffffffffff1673ffffffffffffffffffffffffffffffffffffffff1681526020019081526020015f20905082815f0190816102329190610e8c565b50818160010190816102449190610e8c565b50336002846040516102569190610c0b565b90815260200160405180910390205f6101000a81548173ffffffffffffffffffffffffffffffffffffffff021916908373ffffffffffffffffffffffffffffffffffffffff1602179055503373ffffffffffffffffffffffffffffffffffffffff167f48cac28ad4dc618e15f4c2dd5e97751182f166de97b25618318b2112aa951a2f846040516102e79190610f5b565b60405180910390a2505050565b5f60015f3373ffffffffffffffffffffffffffffffffffffffff1673ffffffffffffffffffffffffffffffffffffffff1681526020019081526020015f205f01805461033f90610cb6565b905011610381576040517f08c379a000000000000000000000000000000000000000000000000000000000815260040161037890610fc5565b60405180910390fd5b5f6002836040516103929190610c0b565b90815260200160405180910390205f9054906101000a900473ffffffffffffffffffffffffffffffffffffffff1690503373ffffffffffffffffffffffffffffffffffffffff168173ffffffffffffffffffffffffffffffffffffffff1614610430576040517f08c379a00000000000000000000000000000000000000000000000000000000081526004016104279061102d565b60405180910390fd5b60015f8273ffffffffffffffffffffffffffffffffffffffff1673ffffffffffffffffffffffffffffffffffffffff1681526020019081526020015f2060010160405160200161048091906110cb565b60405160208183030381529060405280519060200120826040516020016104a79190610c0b565b60405160208183030381529060405280519060200120146104fd576040517f08c379a00000000000000000000000000000000000000000000000000000000081526004016104f49061102d565b60405180910390fd5b3373ffffffffffffffffffffffffffffffffffffffff167f8d15fde878cff665868ed7579eb5081db6508d4249df61dcdd7699a5301d987460405160405180910390a2505050565b5f8054906101000a900473ffffffffffffffffffffffffffffffffffffffff1681565b5f60015f3373ffffffffffffffffffffffffffffffffffffffff1673ffffffffffffffffffffffffffffffffffffffff1681526020019081526020015f205f0180546105b390610cb6565b9050116105f5576040517f08c379a00000000000000000000000000000000000000000000000000000000081526004016105ec90610fc5565b60405180910390fd5b5f6002836040516106069190610c0b565b90815260200160405180910390205f9054906101000a900473ffffffffffffffffffffffffffffffffffffffff1690503373ffffffffffffffffffffffffffffffffffffffff168173ffffffffffffffffffffffffffffffffffffffff16146106a4576040517f08c379a000000000000000000000000000000000000000000000000000000000815260040161069b9061112b565b60405180910390fd5b8160015f8373ffffffffffffffffffffffffffffffffffffffff1673ffffffffffffffffffffffffffffffffffffffff1681526020019081526020015f2060010190816106f19190610e8c565b50505050565b6001602052805f5260405f205f91509050805f01805461071690610cb6565b80601f016020809104026020016040519081016040528092919081815260200182805461074290610cb6565b801561078d5780601f106107645761010080835404028352916020019161078d565b820191905f5260205f20905b81548152906001019060200180831161077057829003601f168201915b5050505050908060010180546107a290610cb6565b80601f01602080910402602001604051908101604052809291908181526020018280546107ce90610cb6565b80156108195780601f106107f057610100808354040283529160200191610819565b820191905f5260205f20905b8154815290600101906020018083116107fc57829003601f168201915b5050505050905082565b6002818051602081018201805184825260208301602085012081835280955050505050505f915054906101000a900473ffffffffffffffffffffffffffffffffffffffff1681565b5f604051905090565b5f80fd5b5f80fd5b5f80fd5b5f80fd5b5f601f19601f8301169050919050565b7f4e487b71000000000000000000000000000000000000000000000000000000005f52604160045260245ffd5b6108ca82610884565b810181811067ffffffffffffffff821117156108e9576108e8610894565b5b80604052505050565b5f6108fb61086b565b905061090782826108c1565b919050565b5f67ffffffffffffffff82111561092657610925610894565b5b61092f82610884565b9050602081019050919050565b828183375f83830152505050565b5f61095c6109578461090c565b6108f2565b90508281526020810184848401111561097857610977610880565b5b61098384828561093c565b509392505050565b5f82601f83011261099f5761099e61087c565b5b81356109af84826020860161094a565b91505092915050565b5f80604083850312156109ce576109cd610874565b5b5f83013567ffffffffffffffff8111156109eb576109ea610878565b5b6109f78582860161098b565b925050602083013567ffffffffffffffff811115610a1857610a17610878565b5b610a248582860161098b565b9150509250929050565b5f73ffffffffffffffffffffffffffffffffffffffff82169050919050565b5f610a5782610a2e565b9050919050565b610a6781610a4d565b82525050565b5f602082019050610a805f830184610a5e565b92915050565b610a8f81610a4d565b8114610a99575f80fd5b50565b5f81359050610aaa81610a86565b92915050565b5f60208284031215610ac557610ac4610874565b5b5f610ad284828501610a9c565b91505092915050565b5f81519050919050565b5f82825260208201905092915050565b5f5b83811015610b12578082015181840152602081019050610af7565b5f8484015250505050565b5f610b2782610adb565b610b318185610ae5565b9350610b41818560208601610af5565b610b4a81610884565b840191505092915050565b5f6040820190508181035f830152610b6d8185610b1d565b90508181036020830152610b818184610b1d565b90509392505050565b5f60208284031215610b9f57610b9e610874565b5b5f82013567ffffffffffffffff811115610bbc57610bbb610878565b5b610bc88482850161098b565b91505092915050565b5f81905092915050565b5f610be582610adb565b610bef8185610bd1565b9350610bff818560208601610af5565b80840191505092915050565b5f610c168284610bdb565b915081905092915050565b7f557365726e616d6520616c7265616479206578697374730000000000000000005f82015250565b5f610c55601783610ae5565b9150610c6082610c21565b602082019050919050565b5f6020820190508181035f830152610c8281610c49565b9050919050565b7f4e487b71000000000000000000000000000000000000000000000000000000005f52602260045260245ffd5b5f6002820490506001821680610ccd57607f821691505b602082108103610ce057610cdf610c89565b5b50919050565b5f819050815f5260205f209050919050565b5f6020601f8301049050919050565b5f82821b905092915050565b5f60088302610d427fffffffffffffffffffffffffffffffffffffffffffffffffffffffffffffffff82610d07565b610d4c8683610d07565b95508019841693508086168417925050509392505050565b5f819050919050565b5f819050919050565b5f610d90610d8b610d8684610d64565b610d6d565b610d64565b9050919050565b5f819050919050565b610da983610d76565b610dbd610db582610d97565b848454610d13565b825550505050565b5f90565b610dd1610dc5565b610ddc818484610da0565b505050565b5b81811015610dff57610df45f82610dc9565b600181019050610de2565b5050565b601f821115610e4457610e1581610ce6565b610e1e84610cf8565b81016020851015610e2d578190505b610e41610e3985610cf8565b830182610de1565b50505b505050565b5f82821c905092915050565b5f610e645f1984600802610e49565b1980831691505092915050565b5f610e7c8383610e55565b9150826002028217905092915050565b610e9582610adb565b67ffffffffffffffff811115610eae57610ead610894565b5b610eb88254610cb6565b610ec3828285610e03565b5f60209050601f831160018114610ef4575f8415610ee2578287015190505b610eec8582610e71565b865550610f53565b601f198416610f0286610ce6565b5f5b82811015610f2957848901518255600182019150602085019450602081019050610f04565b86831015610f465784890151610f42601f891682610e55565b8355505b6001600288020188555050505b505050505050565b5f6020820190508181035f830152610f738184610b1d565b905092915050565b7f55736572206e6f742072656769737465726564000000000000000000000000005f82015250565b5f610faf601383610ae5565b9150610fba82610f7b565b602082019050919050565b5f6020820190508181035f830152610fdc81610fa3565b9050919050565b7f496e76616c696420757365726e616d65206f722070617373776f7264000000005f82015250565b5f611017601c83610ae5565b915061102282610fe3565b602082019050919050565b5f6020820190508181035f8301526110448161100b565b9050919050565b5f815461105781610cb6565b6110618186610bd1565b9450600182165f811461107b5760018114611090576110c2565b60ff19831686528115158202860193506110c2565b61109985610ce6565b5f5b838110156110ba5781548189015260018201915060208101905061109b565b838801955050505b50505092915050565b5f6110d6828461104b565b915081905092915050565b7f496e76616c696420757365726e616d65000000000000000000000000000000005f82015250565b5f611115601083610ae5565b9150611120826110e1565b602082019050919050565b5f6020820190508181035f83015261114281611109565b905091905056fea26469706673582212200db725d118b413baa19bca9808dd8b13f8b46c431f0a127ce36997f44a86c19664736f6c63430008150033",
  "immutableReferences": {},
  "source": "// SPDX-License-Identifier: MIT\r\npragma solidity ^0.8.0;\r\n\r\ncontract Authentication {\r\n    address public owner;\r\n\r\n    struct User {\r\n        string username;\r\n        string passwordHash; // In a real-world scenario, use a more secure hashing algorithm\r\n    }\r\n\r\n    mapping(address => User) public users;\r\n    mapping(string => address) public usernameToAddress;\r\n\r\n    event UserRegistered(address indexed userAddress, string username);\r\n    event UserLoggedIn(address indexed userAddress);\r\n\r\n    modifier onlyOwner() {\r\n        require(msg.sender == owner, \"Not the contract owner\");\r\n        _;\r\n    }\r\n\r\n    modifier onlyRegisteredUser() {\r\n        require(bytes(users[msg.sender].username).length > 0, \"User not registered\");\r\n        _;\r\n    }\r\n\r\n\r\n    constructor() {\r\n        owner = msg.sender;\r\n    }\r\n\r\n    function registerUser(string memory _username, string memory _passwordHash) public {\r\n        require(usernameToAddress[_username] == address(0), \"Username already exists\");\r\n\r\n        User storage newUser = users[msg.sender];\r\n        newUser.username = _username;\r\n        newUser.passwordHash = _passwordHash;\r\n\r\n        usernameToAddress[_username] = msg.sender;\r\n\r\n        emit UserRegistered(msg.sender, _username);\r\n    }\r\n\r\n    function loginUser(string memory _username, string memory _passwordHash) public onlyRegisteredUser {\r\n        address userAddress = usernameToAddress[_username];\r\n        require(userAddress == msg.sender, \"Invalid username or password\");\r\n        require(keccak256(abi.encodePacked(_passwordHash)) == keccak256(abi.encodePacked(users[userAddress].passwordHash)), \"Invalid username or password\");\r\n\r\n        emit UserLoggedIn(msg.sender);\r\n    }\r\n\r\n    function forgotPassword(string memory _username, string memory _newPasswordHash) public onlyRegisteredUser {\r\n        address userAddress = usernameToAddress[_username];\r\n        require(userAddress == msg.sender, \"Invalid username\");\r\n        \r\n        users[userAddress].passwordHash = _newPasswordHash;\r\n    }\r\n}\r\n",
  "sourcePath": "D:\\Sample\\contracts\\Authentication.sol",
  "compiler": {
    "name": "solc",
    "version": "0.8.21+commit.d9974bed.Emscripten.clang"
  },
  "schemaVersion": "3.4.16",
  "updatedAt": "2023-11-30T07:29:34.663Z",
  "devdoc": {
    "kind": "dev",
    "methods": {},
    "version": 1
  },
  "userdoc": {
    "kind": "user",
    "methods": {},
    "version": 1
  }
}