{
  "contractName": "Authentication",
  "abi": [
    {
      "inputs": [],
      "stateMutability": "nonpayable",
      "type": "constructor"
    },
    {
      "anonymous": false,
      "inputs": [
        {
          "indexed": true,
          "internalType": "address",
          "name": "userAddress",
          "type": "address"
        }
      ],
      "name": "UserLoggedIn",
      "type": "event"
    },
    {
      "anonymous": false,
      "inputs": [
        {
          "indexed": true,
          "internalType": "address",
          "name": "userAddress",
          "type": "address"
        },
        {
          "indexed": false,
          "internalType": "string",
          "name": "username",
          "type": "string"
        }
      ],
      "name": "UserRegistered",
      "type": "event"
    },
    {
      "inputs": [],
      "name": "owner",
      "outputs": [
        {
          "internalType": "address",
          "name": "",
          "type": "address"
        }
      ],
      "stateMutability": "view",
      "type": "function"
    },
    {
      "inputs": [
        {
          "internalType": "string",
          "name": "",
          "type": "string"
        }
      ],
      "name": "usernameToAddress",
      "outputs": [
        {
          "internalType": "address",
          "name": "",
          "type": "address"
        }
      ],
      "stateMutability": "view",
      "type": "function"
    },
    {
      "inputs": [
        {
          "internalType": "address",
          "name": "",
          "type": "address"
        }
      ],
      "name": "users",
      "outputs": [
        {
          "internalType": "string",
          "name": "username",
          "type": "string"
        },
        {
          "internalType": "string",
          "name": "fname",
          "type": "string"
        },
        {
          "internalType": "string",
          "name": "lname",
          "type": "string"
        },
        {
          "internalType": "string",
          "name": "universityname",
          "type": "string"
        },
        {
          "internalType": "string",
          "name": "clgname",
          "type": "string"
        },
        {
          "internalType": "string",
          "name": "passwordHash",
          "type": "string"
        }
      ],
      "stateMutability": "view",
      "type": "function"
    },
    {
      "inputs": [
        {
          "internalType": "string",
          "name": "_username",
          "type": "string"
        },
        {
          "internalType": "string",
          "name": "_passwordHash",
          "type": "string"
        },
        {
          "internalType": "string",
          "name": "_fname",
          "type": "string"
        },
        {
          "internalType": "string",
          "name": "_lname",
          "type": "string"
        },
        {
          "internalType": "string",
          "name": "_universityname",
          "type": "string"
        },
        {
          "internalType": "string",
          "name": "_clgname",
          "type": "string"
        }
      ],
      "name": "registerUser",
      "outputs": [],
      "stateMutability": "nonpayable",
      "type": "function"
    },
    {
      "inputs": [
        {
          "internalType": "string",
          "name": "_username",
          "type": "string"
        },
        {
          "internalType": "string",
          "name": "_passwordHash",
          "type": "string"
        }
      ],
      "name": "loginUser",
      "outputs": [],
      "stateMutability": "nonpayable",
      "type": "function"
    },
    {
      "inputs": [
        {
          "internalType": "string",
          "name": "_username",
          "type": "string"
        },
        {
          "internalType": "string",
          "name": "_newPasswordHash",
          "type": "string"
        }
      ],
      "name": "forgotPassword",
      "outputs": [],
      "stateMutability": "nonpayable",
      "type": "function"
    }
  ],
  "bytecode": "0x608060405234801561000f575f80fd5b50335f806101000a81548173ffffffffffffffffffffffffffffffffffffffff021916908373ffffffffffffffffffffffffffffffffffffffff1602179055506115848061005c5f395ff3fe608060405234801561000f575f80fd5b5060043610610060575f3560e01c806322ce12e5146100645780637832a0d1146100805780638da5cb5b1461009c5780639cb1d347146100ba578063a87430ba146100d6578063f825f1431461010b575b5f80fd5b61007e60048036038101906100799190610c38565b61013b565b005b61009a60048036038101906100959190610cae565b61038c565b005b6100a4610595565b6040516100b19190610e1e565b60405180910390f35b6100d460048036038101906100cf9190610c38565b6105b8565b005b6100f060048036038101906100eb9190610e61565b610747565b60405161010296959493929190610f06565b60405180910390f35b61012560048036038101906101209190610f8f565b610aa3565b6040516101329190610e1e565b60405180910390f35b5f60015f3373ffffffffffffffffffffffffffffffffffffffff1673ffffffffffffffffffffffffffffffffffffffff1681526020019081526020015f205f01805461018690611003565b9050116101c8576040517f08c379a00000000000000000000000000000000000000000000000000000000081526004016101bf9061107d565b60405180910390fd5b5f6002836040516101d991906110d5565b90815260200160405180910390205f9054906101000a900473ffffffffffffffffffffffffffffffffffffffff1690503373ffffffffffffffffffffffffffffffffffffffff168173ffffffffffffffffffffffffffffffffffffffff1614610277576040517f08c379a000000000000000000000000000000000000000000000000000000000815260040161026e90611135565b60405180910390fd5b60015f8273ffffffffffffffffffffffffffffffffffffffff1673ffffffffffffffffffffffffffffffffffffffff1681526020019081526020015f206005016040516020016102c791906111e5565b60405160208183030381529060405280519060200120826040516020016102ee91906110d5565b6040516020818303038152906040528051906020012014610344576040517f08c379a000000000000000000000000000000000000000000000000000000000815260040161033b90611135565b60405180910390fd5b3373ffffffffffffffffffffffffffffffffffffffff167f8d15fde878cff665868ed7579eb5081db6508d4249df61dcdd7699a5301d987460405160405180910390a2505050565b5f73ffffffffffffffffffffffffffffffffffffffff166002876040516103b391906110d5565b90815260200160405180910390205f9054906101000a900473ffffffffffffffffffffffffffffffffffffffff1673ffffffffffffffffffffffffffffffffffffffff1614610437576040517f08c379a000000000000000000000000000000000000000000000000000000000815260040161042e90611245565b60405180910390fd5b5f60015f3373ffffffffffffffffffffffffffffffffffffffff1673ffffffffffffffffffffffffffffffffffffffff1681526020019081526020015f20905086815f01908161048791906113f7565b508581600501908161049991906113f7565b50848160010190816104ab91906113f7565b50838160020190816104bd91906113f7565b50828160030190816104cf91906113f7565b50818160040190816104e191906113f7565b50336002886040516104f391906110d5565b90815260200160405180910390205f6101000a81548173ffffffffffffffffffffffffffffffffffffffff021916908373ffffffffffffffffffffffffffffffffffffffff1602179055503373ffffffffffffffffffffffffffffffffffffffff167f48cac28ad4dc618e15f4c2dd5e97751182f166de97b25618318b2112aa951a2f8860405161058491906114c6565b60405180910390a250505050505050565b5f8054906101000a900473ffffffffffffffffffffffffffffffffffffffff1681565b5f60015f3373ffffffffffffffffffffffffffffffffffffffff1673ffffffffffffffffffffffffffffffffffffffff1681526020019081526020015f205f01805461060390611003565b905011610645576040517f08c379a000000000000000000000000000000000000000000000000000000000815260040161063c9061107d565b60405180910390fd5b5f60028360405161065691906110d5565b90815260200160405180910390205f9054906101000a900473ffffffffffffffffffffffffffffffffffffffff1690503373ffffffffffffffffffffffffffffffffffffffff168173ffffffffffffffffffffffffffffffffffffffff16146106f4576040517f08c379a00000000000000000000000000000000000000000000000000000000081526004016106eb90611530565b60405180910390fd5b8160015f8373ffffffffffffffffffffffffffffffffffffffff1673ffffffffffffffffffffffffffffffffffffffff1681526020019081526020015f20600501908161074191906113f7565b50505050565b6001602052805f5260405f205f91509050805f01805461076690611003565b80601f016020809104026020016040519081016040528092919081815260200182805461079290611003565b80156107dd5780601f106107b4576101008083540402835291602001916107dd565b820191905f5260205f20905b8154815290600101906020018083116107c057829003601f168201915b5050505050908060010180546107f290611003565b80601f016020809104026020016040519081016040528092919081815260200182805461081e90611003565b80156108695780601f1061084057610100808354040283529160200191610869565b820191905f5260205f20905b81548152906001019060200180831161084c57829003601f168201915b50505050509080600201805461087e90611003565b80601f01602080910402602001604051908101604052809291908181526020018280546108aa90611003565b80156108f55780601f106108cc576101008083540402835291602001916108f5565b820191905f5260205f20905b8154815290600101906020018083116108d857829003601f168201915b50505050509080600301805461090a90611003565b80601f016020809104026020016040519081016040528092919081815260200182805461093690611003565b80156109815780601f1061095857610100808354040283529160200191610981565b820191905f5260205f20905b81548152906001019060200180831161096457829003601f168201915b50505050509080600401805461099690611003565b80601f01602080910402602001604051908101604052809291908181526020018280546109c290611003565b8015610a0d5780601f106109e457610100808354040283529160200191610a0d565b820191905f5260205f20905b8154815290600101906020018083116109f057829003601f168201915b505050505090806005018054610a2290611003565b80601f0160208091040260200160405190810160405280929190818152602001828054610a4e90611003565b8015610a995780601f10610a7057610100808354040283529160200191610a99565b820191905f5260205f20905b815481529060010190602001808311610a7c57829003601f168201915b5050505050905086565b6002818051602081018201805184825260208301602085012081835280955050505050505f915054906101000a900473ffffffffffffffffffffffffffffffffffffffff1681565b5f604051905090565b5f80fd5b5f80fd5b5f80fd5b5f80fd5b5f601f19601f8301169050919050565b7f4e487b71000000000000000000000000000000000000000000000000000000005f52604160045260245ffd5b610b4a82610b04565b810181811067ffffffffffffffff82111715610b6957610b68610b14565b5b80604052505050565b5f610b7b610aeb565b9050610b878282610b41565b919050565b5f67ffffffffffffffff821115610ba657610ba5610b14565b5b610baf82610b04565b9050602081019050919050565b828183375f83830152505050565b5f610bdc610bd784610b8c565b610b72565b905082815260208101848484011115610bf857610bf7610b00565b5b610c03848285610bbc565b509392505050565b5f82601f830112610c1f57610c1e610afc565b5b8135610c2f848260208601610bca565b91505092915050565b5f8060408385031215610c4e57610c4d610af4565b5b5f83013567ffffffffffffffff811115610c6b57610c6a610af8565b5b610c7785828601610c0b565b925050602083013567ffffffffffffffff811115610c9857610c97610af8565b5b610ca485828601610c0b565b9150509250929050565b5f805f805f8060c08789031215610cc857610cc7610af4565b5b5f87013567ffffffffffffffff811115610ce557610ce4610af8565b5b610cf189828a01610c0b565b965050602087013567ffffffffffffffff811115610d1257610d11610af8565b5b610d1e89828a01610c0b565b955050604087013567ffffffffffffffff811115610d3f57610d3e610af8565b5b610d4b89828a01610c0b565b945050606087013567ffffffffffffffff811115610d6c57610d6b610af8565b5b610d7889828a01610c0b565b935050608087013567ffffffffffffffff811115610d9957610d98610af8565b5b610da589828a01610c0b565b92505060a087013567ffffffffffffffff811115610dc657610dc5610af8565b5b610dd289828a01610c0b565b9150509295509295509295565b5f73ffffffffffffffffffffffffffffffffffffffff82169050919050565b5f610e0882610ddf565b9050919050565b610e1881610dfe565b82525050565b5f602082019050610e315f830184610e0f565b92915050565b610e4081610dfe565b8114610e4a575f80fd5b50565b5f81359050610e5b81610e37565b92915050565b5f60208284031215610e7657610e75610af4565b5b5f610e8384828501610e4d565b91505092915050565b5f81519050919050565b5f82825260208201905092915050565b5f5b83811015610ec3578082015181840152602081019050610ea8565b5f8484015250505050565b5f610ed882610e8c565b610ee28185610e96565b9350610ef2818560208601610ea6565b610efb81610b04565b840191505092915050565b5f60c0820190508181035f830152610f1e8189610ece565b90508181036020830152610f328188610ece565b90508181036040830152610f468187610ece565b90508181036060830152610f5a8186610ece565b90508181036080830152610f6e8185610ece565b905081810360a0830152610f828184610ece565b9050979650505050505050565b5f60208284031215610fa457610fa3610af4565b5b5f82013567ffffffffffffffff811115610fc157610fc0610af8565b5b610fcd84828501610c0b565b91505092915050565b7f4e487b71000000000000000000000000000000000000000000000000000000005f52602260045260245ffd5b5f600282049050600182168061101a57607f821691505b60208210810361102d5761102c610fd6565b5b50919050565b7f55736572206e6f742072656769737465726564000000000000000000000000005f82015250565b5f611067601383610e96565b915061107282611033565b602082019050919050565b5f6020820190508181035f8301526110948161105b565b9050919050565b5f81905092915050565b5f6110af82610e8c565b6110b9818561109b565b93506110c9818560208601610ea6565b80840191505092915050565b5f6110e082846110a5565b915081905092915050565b7f496e76616c696420757365726e616d65206f722070617373776f7264000000005f82015250565b5f61111f601c83610e96565b915061112a826110eb565b602082019050919050565b5f6020820190508181035f83015261114c81611113565b9050919050565b5f819050815f5260205f209050919050565b5f815461117181611003565b61117b818661109b565b9450600182165f811461119557600181146111aa576111dc565b60ff19831686528115158202860193506111dc565b6111b385611153565b5f5b838110156111d4578154818901526001820191506020810190506111b5565b838801955050505b50505092915050565b5f6111f08284611165565b915081905092915050565b7f557365726e616d6520616c7265616479206578697374730000000000000000005f82015250565b5f61122f601783610e96565b915061123a826111fb565b602082019050919050565b5f6020820190508181035f83015261125c81611223565b9050919050565b5f6020601f8301049050919050565b5f82821b905092915050565b5f600883026112ad7fffffffffffffffffffffffffffffffffffffffffffffffffffffffffffffffff82611272565b6112b78683611272565b95508019841693508086168417925050509392505050565b5f819050919050565b5f819050919050565b5f6112fb6112f66112f1846112cf565b6112d8565b6112cf565b9050919050565b5f819050919050565b611314836112e1565b61132861132082611302565b84845461127e565b825550505050565b5f90565b61133c611330565b61134781848461130b565b505050565b5b8181101561136a5761135f5f82611334565b60018101905061134d565b5050565b601f8211156113af5761138081611153565b61138984611263565b81016020851015611398578190505b6113ac6113a485611263565b83018261134c565b50505b505050565b5f82821c905092915050565b5f6113cf5f19846008026113b4565b1980831691505092915050565b5f6113e783836113c0565b9150826002028217905092915050565b61140082610e8c565b67ffffffffffffffff81111561141957611418610b14565b5b6114238254611003565b61142e82828561136e565b5f60209050601f83116001811461145f575f841561144d578287015190505b61145785826113dc565b8655506114be565b601f19841661146d86611153565b5f5b828110156114945784890151825560018201915060208501945060208101905061146f565b868310156114b157848901516114ad601f8916826113c0565b8355505b6001600288020188555050505b505050505050565b5f6020820190508181035f8301526114de8184610ece565b905092915050565b7f496e76616c696420757365726e616d65000000000000000000000000000000005f82015250565b5f61151a601083610e96565b9150611525826114e6565b602082019050919050565b5f6020820190508181035f8301526115478161150e565b905091905056fea2646970667358221220de5e7b18d105ac13478d48652a81a1a4ee47d67e289e380aff3bb1976c9cbf7e64736f6c63430008150033",
  "immutableReferences": {},
  "source": "// SPDX-License-Identifier: MIT\r\npragma solidity ^0.8.0;\r\n\r\ncontract Authentication {\r\n    address public owner;\r\n\r\n    struct User {\r\n        string username;\r\n        string fname;\r\n        string lname;\r\n        string universityname;\r\n        string clgname;\r\n        string passwordHash; // In a real-world scenario, use a more secure hashing algorithm\r\n    }\r\n\r\n    mapping(address => User) public users;\r\n    mapping(string => address) public usernameToAddress;\r\n\r\n    event UserRegistered(address indexed userAddress, string username);\r\n    event UserLoggedIn(address indexed userAddress);\r\n\r\n    modifier onlyOwner() {\r\n        require(msg.sender == owner, \"Not the contract owner\");\r\n        _;\r\n    }\r\n\r\n    modifier onlyRegisteredUser() {\r\n        require(bytes(users[msg.sender].username).length > 0, \"User not registered\");\r\n        _;\r\n    }\r\n\r\n\r\n    constructor() {\r\n        owner = msg.sender;\r\n    }\r\n\r\n    function registerUser(string memory _username, string memory _passwordHash, string memory _fname, string memory _lname, string memory _universityname, string memory _clgname) public {\r\n        require(usernameToAddress[_username] == address(0), \"Username already exists\");\r\n\r\n        User storage newUser = users[msg.sender];\r\n        newUser.username = _username;\r\n        newUser.passwordHash = _passwordHash;\r\n        newUser.fname = _fname;\r\n        newUser.lname = _lname;\r\n        newUser.universityname = _universityname;\r\n        newUser.clgname = _clgname;\r\n\r\n        usernameToAddress[_username] = msg.sender;\r\n\r\n        emit UserRegistered(msg.sender, _username);\r\n    }\r\n\r\n    function loginUser(string memory _username, string memory _passwordHash) public onlyRegisteredUser {\r\n        address userAddress = usernameToAddress[_username];\r\n        require(userAddress == msg.sender, \"Invalid username or password\");\r\n        require(keccak256(abi.encodePacked(_passwordHash)) == keccak256(abi.encodePacked(users[userAddress].passwordHash)), \"Invalid username or password\");\r\n\r\n        emit UserLoggedIn(msg.sender);\r\n    }\r\n\r\n    function forgotPassword(string memory _username, string memory _newPasswordHash) public onlyRegisteredUser {\r\n        address userAddress = usernameToAddress[_username];\r\n        require(userAddress == msg.sender, \"Invalid username\");\r\n        \r\n        users[userAddress].passwordHash = _newPasswordHash;\r\n    }\r\n}\r\n",
  "sourcePath": "D:\\CertificateValidation\\contracts\\Authentication.sol",
  "compiler": {
    "name": "solc",
    "version": "0.8.21+commit.d9974bed.Emscripten.clang"
  },
  "schemaVersion": "3.4.16",
  "updatedAt": "2024-01-18T18:17:04.937Z",
  "devdoc": {
    "kind": "dev",
    "methods": {},
    "version": 1
  },
  "userdoc": {
    "kind": "user",
    "methods": {},
    "version": 1
  }
}