{
  "contractName": "EventContract",
  "abi": [
    {
      "inputs": [],
      "stateMutability": "nonpayable",
      "type": "constructor"
    },
    {
      "anonymous": false,
      "inputs": [
        {
          "indexed": false,
          "internalType": "uint256",
          "name": "eventId",
          "type": "uint256"
        },
        {
          "indexed": true,
          "internalType": "address",
          "name": "organizer",
          "type": "address"
        },
        {
          "indexed": false,
          "internalType": "string",
          "name": "name",
          "type": "string"
        },
        {
          "indexed": false,
          "internalType": "uint256",
          "name": "date",
          "type": "uint256"
        },
        {
          "indexed": false,
          "internalType": "uint256",
          "name": "price",
          "type": "uint256"
        },
        {
          "indexed": false,
          "internalType": "uint256",
          "name": "ticketCount",
          "type": "uint256"
        }
      ],
      "name": "EventCreated",
      "type": "event"
    },
    {
      "anonymous": false,
      "inputs": [
        {
          "indexed": false,
          "internalType": "uint256",
          "name": "eventId",
          "type": "uint256"
        },
        {
          "indexed": false,
          "internalType": "uint256",
          "name": "price",
          "type": "uint256"
        },
        {
          "indexed": false,
          "internalType": "uint256",
          "name": "ticketCount",
          "type": "uint256"
        },
        {
          "indexed": false,
          "internalType": "uint256",
          "name": "remainingTicket",
          "type": "uint256"
        }
      ],
      "name": "EventUpdated",
      "type": "event"
    },
    {
      "inputs": [
        {
          "internalType": "uint256",
          "name": "",
          "type": "uint256"
        }
      ],
      "name": "events",
      "outputs": [
        {
          "internalType": "address",
          "name": "organizer",
          "type": "address"
        },
        {
          "internalType": "string",
          "name": "name",
          "type": "string"
        },
        {
          "internalType": "uint256",
          "name": "date",
          "type": "uint256"
        },
        {
          "internalType": "uint256",
          "name": "price",
          "type": "uint256"
        },
        {
          "internalType": "uint256",
          "name": "ticketCount",
          "type": "uint256"
        },
        {
          "internalType": "uint256",
          "name": "remainingTicket",
          "type": "uint256"
        }
      ],
      "stateMutability": "view",
      "type": "function"
    },
    {
      "inputs": [],
      "name": "owner",
      "outputs": [
        {
          "internalType": "address",
          "name": "",
          "type": "address"
        }
      ],
      "stateMutability": "view",
      "type": "function"
    },
    {
      "inputs": [
        {
          "internalType": "uint256",
          "name": "eventId",
          "type": "uint256"
        },
        {
          "internalType": "string",
          "name": "name",
          "type": "string"
        },
        {
          "internalType": "uint256",
          "name": "date",
          "type": "uint256"
        },
        {
          "internalType": "uint256",
          "name": "price",
          "type": "uint256"
        },
        {
          "internalType": "uint256",
          "name": "ticketCount",
          "type": "uint256"
        }
      ],
      "name": "createEvent",
      "outputs": [],
      "stateMutability": "nonpayable",
      "type": "function"
    },
    {
      "inputs": [
        {
          "internalType": "uint256",
          "name": "eventId",
          "type": "uint256"
        },
        {
          "internalType": "uint256",
          "name": "newPrice",
          "type": "uint256"
        },
        {
          "internalType": "uint256",
          "name": "newTicketCount",
          "type": "uint256"
        }
      ],
      "name": "updateEvent",
      "outputs": [],
      "stateMutability": "nonpayable",
      "type": "function"
    },
    {
      "inputs": [
        {
          "internalType": "uint256",
          "name": "eventId",
          "type": "uint256"
        }
      ],
      "name": "getEventDetails",
      "outputs": [
        {
          "internalType": "address",
          "name": "organizer",
          "type": "address"
        },
        {
          "internalType": "string",
          "name": "name",
          "type": "string"
        },
        {
          "internalType": "uint256",
          "name": "date",
          "type": "uint256"
        },
        {
          "internalType": "uint256",
          "name": "price",
          "type": "uint256"
        },
        {
          "internalType": "uint256",
          "name": "ticketCount",
          "type": "uint256"
        },
        {
          "internalType": "uint256",
          "name": "remainingTicket",
          "type": "uint256"
        }
      ],
      "stateMutability": "view",
      "type": "function"
    }
  ],
  "bytecode": "0x608060405234801561000f575f80fd5b50335f806101000a81548173ffffffffffffffffffffffffffffffffffffffff021916908373ffffffffffffffffffffffffffffffffffffffff160217905550610ee28061005c5f395ff3fe608060405234801561000f575f80fd5b5060043610610055575f3560e01c80630b79143014610059578063252985101461008e5780638da5cb5b146100aa5780639ec4b59a146100c8578063ec38d5a0146100e4575b5f80fd5b610073600480360381019061006e91906106e7565b610119565b604051610085969594939291906107ea565b60405180910390f35b6100a860048036038101906100a39190610850565b6101f6565b005b6100b2610385565b6040516100bf91906108a0565b60405180910390f35b6100e260048036038101906100dd91906109e5565b6103a8565b005b6100fe60048036038101906100f991906106e7565b61051d565b604051610110969594939291906107ea565b60405180910390f35b6001602052805f5260405f205f91509050805f015f9054906101000a900473ffffffffffffffffffffffffffffffffffffffff169080600101805461015d90610aa5565b80601f016020809104026020016040519081016040528092919081815260200182805461018990610aa5565b80156101d45780601f106101ab576101008083540402835291602001916101d4565b820191905f5260205f20905b8154815290600101906020018083116101b757829003601f168201915b5050505050908060020154908060030154908060040154908060050154905086565b5f8054906101000a900473ffffffffffffffffffffffffffffffffffffffff1673ffffffffffffffffffffffffffffffffffffffff163373ffffffffffffffffffffffffffffffffffffffff1614610283576040517f08c379a000000000000000000000000000000000000000000000000000000000815260040161027a90610b1f565b60405180910390fd5b5f60015f8581526020019081526020015f2090505f73ffffffffffffffffffffffffffffffffffffffff16815f015f9054906101000a900473ffffffffffffffffffffffffffffffffffffffff1673ffffffffffffffffffffffffffffffffffffffff1603610327576040517f08c379a000000000000000000000000000000000000000000000000000000000815260040161031e90610b87565b60405180910390fd5b8281600301819055508181600401819055508181600501819055507f8a30dc7ac121113e400de858fe30da810b54eb97ae481f4f827102eab8ee7ff5848484856040516103779493929190610ba5565b60405180910390a150505050565b5f8054906101000a900473ffffffffffffffffffffffffffffffffffffffff1681565b5f8054906101000a900473ffffffffffffffffffffffffffffffffffffffff1673ffffffffffffffffffffffffffffffffffffffff163373ffffffffffffffffffffffffffffffffffffffff1614610435576040517f08c379a000000000000000000000000000000000000000000000000000000000815260040161042c90610b1f565b60405180910390fd5b5f60015f8781526020019081526020015f20905033815f015f6101000a81548173ffffffffffffffffffffffffffffffffffffffff021916908373ffffffffffffffffffffffffffffffffffffffff1602179055508481600101908161049b9190610d85565b508381600201819055508281600301819055508181600401819055508181600501819055503373ffffffffffffffffffffffffffffffffffffffff167e502bb4a70fbdfd0aa0d94a5600024efa4814e325c02c38409f206cdd72d6af878787878760405161050d959493929190610e54565b60405180910390a2505050505050565b5f60605f805f805f60015f8981526020019081526020015f2090505f73ffffffffffffffffffffffffffffffffffffffff16815f015f9054906101000a900473ffffffffffffffffffffffffffffffffffffffff1673ffffffffffffffffffffffffffffffffffffffff16036105c8576040517f08c379a00000000000000000000000000000000000000000000000000000000081526004016105bf90610b87565b60405180910390fd5b805f015f9054906101000a900473ffffffffffffffffffffffffffffffffffffffff1681600101826002015483600301548460040154856005015484805461060f90610aa5565b80601f016020809104026020016040519081016040528092919081815260200182805461063b90610aa5565b80156106865780601f1061065d57610100808354040283529160200191610686565b820191905f5260205f20905b81548152906001019060200180831161066957829003601f168201915b505050505094509650965096509650965096505091939550919395565b5f604051905090565b5f80fd5b5f80fd5b5f819050919050565b6106c6816106b4565b81146106d0575f80fd5b50565b5f813590506106e1816106bd565b92915050565b5f602082840312156106fc576106fb6106ac565b5b5f610709848285016106d3565b91505092915050565b5f73ffffffffffffffffffffffffffffffffffffffff82169050919050565b5f61073b82610712565b9050919050565b61074b81610731565b82525050565b5f81519050919050565b5f82825260208201905092915050565b5f5b8381101561078857808201518184015260208101905061076d565b5f8484015250505050565b5f601f19601f8301169050919050565b5f6107ad82610751565b6107b7818561075b565b93506107c781856020860161076b565b6107d081610793565b840191505092915050565b6107e4816106b4565b82525050565b5f60c0820190506107fd5f830189610742565b818103602083015261080f81886107a3565b905061081e60408301876107db565b61082b60608301866107db565b61083860808301856107db565b61084560a08301846107db565b979650505050505050565b5f805f60608486031215610867576108666106ac565b5b5f610874868287016106d3565b9350506020610885868287016106d3565b9250506040610896868287016106d3565b9150509250925092565b5f6020820190506108b35f830184610742565b92915050565b5f80fd5b5f80fd5b7f4e487b71000000000000000000000000000000000000000000000000000000005f52604160045260245ffd5b6108f782610793565b810181811067ffffffffffffffff82111715610916576109156108c1565b5b80604052505050565b5f6109286106a3565b905061093482826108ee565b919050565b5f67ffffffffffffffff821115610953576109526108c1565b5b61095c82610793565b9050602081019050919050565b828183375f83830152505050565b5f61098961098484610939565b61091f565b9050828152602081018484840111156109a5576109a46108bd565b5b6109b0848285610969565b509392505050565b5f82601f8301126109cc576109cb6108b9565b5b81356109dc848260208601610977565b91505092915050565b5f805f805f60a086880312156109fe576109fd6106ac565b5b5f610a0b888289016106d3565b955050602086013567ffffffffffffffff811115610a2c57610a2b6106b0565b5b610a38888289016109b8565b9450506040610a49888289016106d3565b9350506060610a5a888289016106d3565b9250506080610a6b888289016106d3565b9150509295509295909350565b7f4e487b71000000000000000000000000000000000000000000000000000000005f52602260045260245ffd5b5f6002820490506001821680610abc57607f821691505b602082108103610acf57610ace610a78565b5b50919050565b7f4e6f742074686520636f6e7472616374206f776e6572000000000000000000005f82015250565b5f610b0960168361075b565b9150610b1482610ad5565b602082019050919050565b5f6020820190508181035f830152610b3681610afd565b9050919050565b7f4576656e7420646f6573206e6f742065786973740000000000000000000000005f82015250565b5f610b7160148361075b565b9150610b7c82610b3d565b602082019050919050565b5f6020820190508181035f830152610b9e81610b65565b9050919050565b5f608082019050610bb85f8301876107db565b610bc560208301866107db565b610bd260408301856107db565b610bdf60608301846107db565b95945050505050565b5f819050815f5260205f209050919050565b5f6020601f8301049050919050565b5f82821b905092915050565b5f60088302610c447fffffffffffffffffffffffffffffffffffffffffffffffffffffffffffffffff82610c09565b610c4e8683610c09565b95508019841693508086168417925050509392505050565b5f819050919050565b5f610c89610c84610c7f846106b4565b610c66565b6106b4565b9050919050565b5f819050919050565b610ca283610c6f565b610cb6610cae82610c90565b848454610c15565b825550505050565b5f90565b610cca610cbe565b610cd5818484610c99565b505050565b5b81811015610cf857610ced5f82610cc2565b600181019050610cdb565b5050565b601f821115610d3d57610d0e81610be8565b610d1784610bfa565b81016020851015610d26578190505b610d3a610d3285610bfa565b830182610cda565b50505b505050565b5f82821c905092915050565b5f610d5d5f1984600802610d42565b1980831691505092915050565b5f610d758383610d4e565b9150826002028217905092915050565b610d8e82610751565b67ffffffffffffffff811115610da757610da66108c1565b5b610db18254610aa5565b610dbc828285610cfc565b5f60209050601f831160018114610ded575f8415610ddb578287015190505b610de58582610d6a565b865550610e4c565b601f198416610dfb86610be8565b5f5b82811015610e2257848901518255600182019150602085019450602081019050610dfd565b86831015610e3f5784890151610e3b601f891682610d4e565b8355505b6001600288020188555050505b505050505050565b5f60a082019050610e675f8301886107db565b8181036020830152610e7981876107a3565b9050610e8860408301866107db565b610e9560608301856107db565b610ea260808301846107db565b969550505050505056fea2646970667358221220d310c114b4cc7fa6675c05b59cf6db5fe826c02b096e4bf2679a3baad1dc2c6d64736f6c63430008150033",
  "immutableReferences": {},
  "source": "pragma solidity >=0.5.0 <0.9.0;\r\n\r\ncontract EventContract {\r\n    address public owner; // Contract owner\r\n\r\n    modifier onlyOwner() {\r\n        require(msg.sender == owner, \"Not the contract owner\");\r\n        _;\r\n    }\r\n\r\n    constructor() {\r\n        owner = msg.sender;\r\n    }\r\n\r\n    struct Event {\r\n        address organizer;\r\n        string name;\r\n        uint date;\r\n        uint price;\r\n        uint ticketCount;\r\n        uint remainingTicket;\r\n    }\r\n\r\n    mapping (uint => Event) public events;\r\n\r\n    event EventCreated(uint eventId, address indexed organizer, string name, uint date, uint price, uint ticketCount);\r\n    event EventUpdated(uint eventId, uint price, uint ticketCount, uint remainingTicket);\r\n\r\n    function createEvent(\r\n        uint eventId,\r\n        string memory name,\r\n        uint date,\r\n        uint price,\r\n        uint ticketCount\r\n    )\r\n        public\r\n        onlyOwner\r\n    {\r\n        Event storage newEvent = events[eventId];\r\n        newEvent.organizer = msg.sender;\r\n        newEvent.name = name;\r\n        newEvent.date = date;\r\n        newEvent.price = price;\r\n        newEvent.ticketCount = ticketCount;\r\n        newEvent.remainingTicket = ticketCount;\r\n\r\n        emit EventCreated(eventId, msg.sender, name, date, price, ticketCount);\r\n    }\r\n\r\n    function updateEvent(\r\n        uint eventId,\r\n        uint newPrice,\r\n        uint newTicketCount\r\n    )\r\n        public\r\n        onlyOwner\r\n    {\r\n        Event storage existingEvent = events[eventId];\r\n        require(existingEvent.organizer != address(0), \"Event does not exist\");\r\n\r\n        // Update event details\r\n        existingEvent.price = newPrice;\r\n        existingEvent.ticketCount = newTicketCount;\r\n        existingEvent.remainingTicket = newTicketCount;\r\n\r\n        emit EventUpdated(eventId, newPrice, newTicketCount, newTicketCount);\r\n    }\r\n\r\n    function getEventDetails(uint eventId)\r\n        public\r\n        view\r\n        returns (\r\n            address organizer,\r\n            string memory name,\r\n            uint date,\r\n            uint price,\r\n            uint ticketCount,\r\n            uint remainingTicket\r\n        )\r\n    {\r\n        Event storage queriedEvent = events[eventId];\r\n        require(queriedEvent.organizer != address(0), \"Event does not exist\");\r\n\r\n        return (\r\n            queriedEvent.organizer,\r\n            queriedEvent.name,\r\n            queriedEvent.date,\r\n            queriedEvent.price,\r\n            queriedEvent.ticketCount,\r\n            queriedEvent.remainingTicket\r\n        );\r\n    }\r\n}\r\n",
  "sourcePath": "D:\\Sample\\contracts\\EventContract.sol",
  "compiler": {
    "name": "solc",
    "version": "0.8.21+commit.d9974bed.Emscripten.clang"
  },
  "schemaVersion": "3.4.16",
  "updatedAt": "2023-11-30T07:29:34.673Z",
  "devdoc": {
    "kind": "dev",
    "methods": {},
    "version": 1
  },
  "userdoc": {
    "kind": "user",
    "methods": {},
    "version": 1
  }
}